:020000040000FA
:10000000ADEF01F0720EF66E030EF76E000EF86E95
:100010000900F550056E0900F550066E055002E125
:1000200006503BE00900F550006E0900F550016EE6
:100030000900F550026E09000900F550E96E09004B
:10004000F550EA6E090009000900F550036E090039
:10005000F550046E09000900F6CF07F0F7CF08F05D
:10006000F8CF09F000C0F6FF01C0F7FF02C0F8FFAB
:10007000035002E1045007E00900F550EE6E03065C
:10008000F8E20406F9D707C0F6FF08C0F7FF09C079
:10009000F8FF0506C4E20606C5D71200D9CFE5FF72
:1000A000E1CFD9FF00C0E5FF01C0E5FF956A836A93
:1000B000F00E946E84928490006A016A230E015CB3
:1000C00002E1280E005C04E2002AD8B0012AF6D72B
:1000D000A1EC01F0020EE56E6AEC01F0E12A180EC7
:1000E000E56E28EC01F0E12A040EE56E54EC01F017
:1000F000E12AE4CF01F0E4CF00F0E4CFD9FF120011
:10010000D9CFE5FFE1CFD9FF00C0E5FF01C0E5FF92
:10011000FF0E956E836A84908482006A016A0150A2
:10012000800F800F02E1140E005C04E2002AD8B0B8
:10013000012AF5D783CF00F08492800E001600507C
:10014000800A03E1956A010E02D0956AE86AE4CF5D
:1001500001F0E4CF00F0E4CFD9FF1200D9CFE5FFE2
:10016000E1CFD9FF00C0E5FF01C0E5FF020EDBCF04
:1001700000F080EC00F0016E0150010AFAE0956A8F
:10018000848000C083FF8482006A016A0150800F6E
:10019000800F02E1140E005C04E2002AD8B0012AAC
:1001A000F5D78492E4CF01F0E4CF00F0E4CFD9FF9B
:1001B0001200D9CFE5FFE1CFD9FF00C0E5FF01C0B4
:1001C000E5FF020EDBCF00F080EC00F0016E015085
:1001D000010AFAE0956A849000C083FF8482006A75
:1001E000016A0150800F800F02E1140E005C04E2EE
:1001F000002AD8B0012AF5D78492E4CF01F0E4CFE9
:1002000000F0E4CFD9FF12004EEC00F0006A100EAF
:10021000005C0AE2410E0024016E0150E56EAEEC76
:1002200000F0E12A002AF3D7400EE56E80EC01F0E1
:10023000E12A006A100E005C0AE2610E0024016EE1
:100240000150E56EAEEC00F0E12A002AF3D712006F
:10025000D9CFE5FFE1CFD9FF00C0E5FF020EDBCF2C
:1002600000F01F0E0016008A0050E56ED9EC00F079
:10027000E12AE4CF00F0E4CFD9FF1200D9CFE5FFA7
:10028000E1CFD9FF00C0E5FF020EDBCF00F00C0E7E
:10029000001600880050E56ED9EC00F0E12AE4CFAA
:1002A00000F0E4CFD9FF1200D9CFE5FFE1CFD9FFAD
:1002B00000C0E5FF020EDBCF00F0070E001600863F
:1002C0000050E56ED9EC00F0E12AE4CF00F0E4CF75
:1002D000D9FF1200D9CFE5FFE1CFD9FF00C0E5FF7C
:1002E000020EDBCF00F0030E001600840050E56E16
:1002F000D9EC00F0E12AE4CF00F0E4CFD9FF1200FE
:10030000D9CFE5FFE1CFD9FF00C0E5FF020EDBCF7B
:1003100000F0009E008E0050E56ED9EC00F0E12A5E
:10032000E4CF00F0E4CFD9FF1200D9CFE5FFE1CF51
:10033000D9FF020EE56ED9EC00F0E12AE4CFD9FF37
:100340001200D9CFE5FFE1CFD9FF010EE56ED9EC60
:1003500000F0E12AE4CFD9FF120012EE3FF022EEC6
:100360003FF0F86AA68EA69C02EC00F004EC01F0C7
:10037000FFD70100800300008000000001000000A2
:0203800000007B
:020000040030CA
:0E000000FFFAFDFEFFFFFAFFFFFFFFFFFFFF0D
:00000001FF
