:020000040000FA
:1000000000008A110A12A0288316031387018312A5
:1000100003138701FF308316031386008312031333
:10002000860183120313861820280130FE00FF305A
:10003000FF0000303A20013083120313870011289B
:100040008312031306192F280230FE00FF30FF0031
:1000500000303A2002308312031387001128003049
:10006000FE00FF30FF0000303A20831203138701A7
:100070001128080083120313AE007F08AF007E082A
:10008000B0008720831203132E085020831203131D
:100090002F085020831203133008502079200800C5
:1000A00083120313AC00AD010830831203132D0239
:1000B00003187828AC1F60288312031307166328DF
:1000C0008312031307128312031387150000000025
:1000D0000000000000000000000003108312031362
:1000E000AC0D83120313871183120313AD0A542836
:1000F0000800992083120313071299208312031317
:100100008715992083120313071699200800992058
:10011000831203130716992083120313871599205E
:100120008312031307129920831203138711992056
:1001300008000000000000000000000000000800AF
:100140006830FE000130FF0080308A110A1247211A
:100150008A110A1283120313A1007F08A0006A30DB
:10016000A2000130A300831203132008A400210879
:10017000A500FF30A007031CA103240825040319D0
:10018000302904302207A400A501A50D2308A507E6
:100190002408FE002508FF0080308A110A1247213A
:1001A0008A110A1283120313A7007F08A6002208EF
:1001B000FE002308FF0080308A110A1247218A11AD
:1001C0000A1283120313A900A5007F08A800A40047
:1001D00002302207A400A501A50D2308A5072408C5
:1001E000FE002508FF0080308A110A1247218A117B
:1001F0000A1283120313A500AB007F08A400AA0013
:10020000831203132608AA002708AB00FF30A607B5
:10021000031CA7032A082B04031929292808FE0018
:100220002908FF0080308A110A1234218A110A122B
:1002300083120313AA00240884008313251883174C
:100240002A088000A80A0319A90AA40A0319A50A02
:100250000029063083120313A2070318A30AB32848
:100260008A110A1204280800003A03193B29803A2F
:100270000319422900347E08840083137F188317F2
:10028000000808007F088A007E0882000800003A03
:1002900003194F29803A03195929FF0100347E08B8
:1002A000840083137F1883170008FF00840A000866
:1002B00008008A110A124221FD00FE0FFF03FF0A07
:1002C0008A110A124221FC007D08FF007C08080008
:1002D00001340034703401343134003401340034DA
:0202E0000034E8
:00000001FF
