:03000000020008F3
:0300610002000397
:0500030012006480FE04
:040064007512EF75AD
:030068001300750D
:09006B00148090000875F04002B9
:02007400007614
:0800EF0074657374696E67000B
:0800760085821585831685F0D3
:04007E0017AD12AEFA
:0400820013AF14A8FC
:0400860015A916AAF8
:01008A00175E
:0E008B008D828E838FF01200CFFBA3AD82AE6C
:0E00990083888289838AF0EB1200B6A3A882C6
:0A00A700A983EB70DF851582851632
:0500B100838517F02219
:06003700E478FFF6D8FD9D
:080015007900E94400601B7A48
:05001D00009000F778DF
:030022000075A0C6
:0A00250000E493F2A308B8000205FE
:08002F00A0D9F4DAF275A0FF7C
:0E00B60020F71030F6118883A88220F507F697
:0500C400A88375830014
:0100C9002214
:0300CA00F280F7CA
:0200CD00F0221F
:08003D007800E84400600A7934
:030045000075A0A3
:0600480000E4F309D8FCFE
:08004E007800E84400600C7921
:0B00560000900000E4F0A3D8FCD9FAF1
:03000800758117E8
:0A000B001200EBE58260030200031F
:0E00CF0020F71430F6148883A88220F507E687
:0600DD00A88375830022D8
:0300E300E280F7C1
:0300E600E493227E
:0200E900E02213
:0400EB0075820022F8
:00000001FF
