:020000040000FA
:06000000C0EF00F000005B
:0800080052EF00F0980EF66EB5
:10001000010EF76E000EF86E0900F550056E09002E
:10002000F550066E055002E106503BE00900F55020
:10003000006E0900F550016E0900F550026E0900CE
:100040000900F550E96E0900F550EA6E0900090053
:100050000900F550036E0900F550046E090009000F
:10006000F6CF07F0F7CF08F0F8CF09F000C0F6FFA1
:1000700001C0F7FF02C0F8FF035002E1045007E09F
:100080000900F550EE6E0306F8E20406F9D707C042
:10009000F6FF08C0F7FF09C0F8FF0506C4E2060630
:1000A000C5D71200E8CFE5FFD8CFE5FFE0CFE5FFE9
:1000B000F3CFE5FFF4CFE5FFE9CFE5FFEACFE5FFBA
:1000C000FACFE5FFFBCFE5FFD9CFE5FFE1CFD9FFC1
:1000D000F294FF0E0001802702E200018107E4CFC5
:1000E000D9FFE4CFFBFFE4CFFAFFE4CFEAFFE4CF90
:1000F000E9FFE4CFF4FFE4CFF3FFE4CFE0FFE4CF88
:10010000D8FFE4CFE8FF1000D9CFE5FFE1CFD9FF5A
:1001100000C0E5FF01C0E5FF020EDBCF00F0030EDB
:10012000DBCF01F0D58E00C080F001C081F000016E
:10013000805100018111FBE1D59EE4CF01F0E4CFB5
:1001400000F0E4CFD9FF1200F00E936E0F0E816E17
:10015000956A836AF28EF28AD59ED58CD59AD59609
:10016000D594D582D59081A8FED7832A010EE56E5D
:100170002C0EE56E84EC00F0020EE126F4D712009E
:1001800011EEFFF021EEFFF0F86AA68EA69C06ECB9
:1001900000F0A4EC00F0FFD7010004000000820092
:0601A00000000100000058
:020000040030CA
:0E000000FFFAFDFEFFFFFAFFFFFFFFFFFFFF0D
:00000001FF
